{
  "contractName": "Register",
  "abi": [
    {
      "inputs": [],
      "stateMutability": "nonpayable",
      "type": "constructor"
    },
    {
      "inputs": [
        {
          "internalType": "string",
          "name": "name",
          "type": "string"
        },
        {
          "internalType": "address",
          "name": "nameAddress",
          "type": "address"
        }
      ],
      "name": "registerName",
      "outputs": [],
      "stateMutability": "nonpayable",
      "type": "function"
    },
    {
      "inputs": [
        {
          "internalType": "string",
          "name": "newName",
          "type": "string"
        },
        {
          "internalType": "address",
          "name": "nameAddress",
          "type": "address"
        }
      ],
      "name": "updateName",
      "outputs": [],
      "stateMutability": "nonpayable",
      "type": "function"
    },
    {
      "inputs": [
        {
          "internalType": "address",
          "name": "nameAddress",
          "type": "address"
        }
      ],
      "name": "viewName",
      "outputs": [
        {
          "internalType": "string",
          "name": "",
          "type": "string"
        }
      ],
      "stateMutability": "view",
      "type": "function"
    }
  ],
  "bytecode": "0x608060405234801561000f575f80fd5b50335f806101000a81548173ffffffffffffffffffffffffffffffffffffffff021916908373ffffffffffffffffffffffffffffffffffffffff16021790555061106f8061005c5f395ff3fe608060405234801561000f575f80fd5b506004361061003f575f3560e01c80630d6e1b65146100435780637b59af161461005f578063972c73871461007b575b5f80fd5b61005d600480360381019061005891906109f0565b6100ab565b005b610079600480360381019061007491906109f0565b610386565b005b61009560048036038101906100909190610a4a565b610666565b6040516100a29190610aef565b60405180910390f35b5f8054906101000a900473ffffffffffffffffffffffffffffffffffffffff1673ffffffffffffffffffffffffffffffffffffffff163373ffffffffffffffffffffffffffffffffffffffff1614610138576040517f08c379a000000000000000000000000000000000000000000000000000000000815260040161012f90610b59565b60405180910390fd5b5f82511161017b576040517f08c379a000000000000000000000000000000000000000000000000000000000815260040161017290610bc1565b60405180910390fd5b60035f8273ffffffffffffffffffffffffffffffffffffffff1673ffffffffffffffffffffffffffffffffffffffff1681526020019081526020015f205f9054906101000a900460ff16610204576040517f08c379a00000000000000000000000000000000000000000000000000000000081526004016101fb90610c29565b60405180910390fd5b5f60015f8373ffffffffffffffffffffffffffffffffffffffff1673ffffffffffffffffffffffffffffffffffffffff1681526020019081526020015f20805461024d90610c74565b80601f016020809104026020016040519081016040528092919081815260200182805461027990610c74565b80156102c45780601f1061029b576101008083540402835291602001916102c4565b820191905f5260205f20905b8154815290600101906020018083116102a757829003601f168201915b505050505090505f6002826040516102dc9190610cde565b90815260200160405180910390205f6101000a81548160ff02191690831515021790555060016002846040516103129190610cde565b90815260200160405180910390205f6101000a81548160ff0219169083151502179055508260015f8473ffffffffffffffffffffffffffffffffffffffff1673ffffffffffffffffffffffffffffffffffffffff1681526020019081526020015f2090816103809190610e9a565b50505050565b5f8054906101000a900473ffffffffffffffffffffffffffffffffffffffff1673ffffffffffffffffffffffffffffffffffffffff163373ffffffffffffffffffffffffffffffffffffffff1614610413576040517f08c379a000000000000000000000000000000000000000000000000000000000815260040161040a90610b59565b60405180910390fd5b5f825111610456576040517f08c379a000000000000000000000000000000000000000000000000000000000815260040161044d90610bc1565b60405180910390fd5b5f73ffffffffffffffffffffffffffffffffffffffff168173ffffffffffffffffffffffffffffffffffffffff16036104c4576040517f08c379a00000000000000000000000000000000000000000000000000000000081526004016104bb90610fb3565b60405180910390fd5b5f15156002836040516104d79190610cde565b90815260200160405180910390205f9054906101000a900460ff16151514801561054d57505f151560035f8373ffffffffffffffffffffffffffffffffffffffff1673ffffffffffffffffffffffffffffffffffffffff1681526020019081526020015f205f9054906101000a900460ff161515145b61058c576040517f08c379a00000000000000000000000000000000000000000000000000000000081526004016105839061101b565b60405180910390fd5b8160015f8373ffffffffffffffffffffffffffffffffffffffff1673ffffffffffffffffffffffffffffffffffffffff1681526020019081526020015f2090816105d69190610e9a565b5060016002836040516105e99190610cde565b90815260200160405180910390205f6101000a81548160ff021916908315150217905550600160035f8373ffffffffffffffffffffffffffffffffffffffff1673ffffffffffffffffffffffffffffffffffffffff1681526020019081526020015f205f6101000a81548160ff0219169083151502179055505050565b60605f8054906101000a900473ffffffffffffffffffffffffffffffffffffffff1673ffffffffffffffffffffffffffffffffffffffff163373ffffffffffffffffffffffffffffffffffffffff16146106f5576040517f08c379a00000000000000000000000000000000000000000000000000000000081526004016106ec90610b59565b60405180910390fd5b60035f8373ffffffffffffffffffffffffffffffffffffffff1673ffffffffffffffffffffffffffffffffffffffff1681526020019081526020015f205f9054906101000a900460ff1661077e576040517f08c379a000000000000000000000000000000000000000000000000000000000815260040161077590610c29565b60405180910390fd5b60015f8373ffffffffffffffffffffffffffffffffffffffff1673ffffffffffffffffffffffffffffffffffffffff1681526020019081526020015f2080546107c690610c74565b80601f01602080910402602001604051908101604052809291908181526020018280546107f290610c74565b801561083d5780601f106108145761010080835404028352916020019161083d565b820191905f5260205f20905b81548152906001019060200180831161082057829003601f168201915b50505050509050919050565b5f604051905090565b5f80fd5b5f80fd5b5f80fd5b5f80fd5b5f601f19601f8301169050919050565b7f4e487b71000000000000000000000000000000000000000000000000000000005f52604160045260245ffd5b6108a882610862565b810181811067ffffffffffffffff821117156108c7576108c6610872565b5b80604052505050565b5f6108d9610849565b90506108e5828261089f565b919050565b5f67ffffffffffffffff82111561090457610903610872565b5b61090d82610862565b9050602081019050919050565b828183375f83830152505050565b5f61093a610935846108ea565b6108d0565b9050828152602081018484840111156109565761095561085e565b5b61096184828561091a565b509392505050565b5f82601f83011261097d5761097c61085a565b5b813561098d848260208601610928565b91505092915050565b5f73ffffffffffffffffffffffffffffffffffffffff82169050919050565b5f6109bf82610996565b9050919050565b6109cf816109b5565b81146109d9575f80fd5b50565b5f813590506109ea816109c6565b92915050565b5f8060408385031215610a0657610a05610852565b5b5f83013567ffffffffffffffff811115610a2357610a22610856565b5b610a2f85828601610969565b9250506020610a40858286016109dc565b9150509250929050565b5f60208284031215610a5f57610a5e610852565b5b5f610a6c848285016109dc565b91505092915050565b5f81519050919050565b5f82825260208201905092915050565b5f5b83811015610aac578082015181840152602081019050610a91565b5f8484015250505050565b5f610ac182610a75565b610acb8185610a7f565b9350610adb818560208601610a8f565b610ae481610862565b840191505092915050565b5f6020820190508181035f830152610b078184610ab7565b905092915050565b7f4e4f54204f574e455221210000000000000000000000000000000000000000005f82015250565b5f610b43600b83610a7f565b9150610b4e82610b0f565b602082019050919050565b5f6020820190508181035f830152610b7081610b37565b9050919050565b7f4e616d652063616e6e6f7420626520656d7074790000000000000000000000005f82015250565b5f610bab601483610a7f565b9150610bb682610b77565b602082019050919050565b5f6020820190508181035f830152610bd881610b9f565b9050919050565b7f416464726573732068617665206e6f206e616d652c20526567697374657221215f82015250565b5f610c13602083610a7f565b9150610c1e82610bdf565b602082019050919050565b5f6020820190508181035f830152610c4081610c07565b9050919050565b7f4e487b71000000000000000000000000000000000000000000000000000000005f52602260045260245ffd5b5f6002820490506001821680610c8b57607f821691505b602082108103610c9e57610c9d610c47565b5b50919050565b5f81905092915050565b5f610cb882610a75565b610cc28185610ca4565b9350610cd2818560208601610a8f565b80840191505092915050565b5f610ce98284610cae565b915081905092915050565b5f819050815f5260205f209050919050565b5f6020601f8301049050919050565b5f82821b905092915050565b5f60088302610d507fffffffffffffffffffffffffffffffffffffffffffffffffffffffffffffffff82610d15565b610d5a8683610d15565b95508019841693508086168417925050509392505050565b5f819050919050565b5f819050919050565b5f610d9e610d99610d9484610d72565b610d7b565b610d72565b9050919050565b5f819050919050565b610db783610d84565b610dcb610dc382610da5565b848454610d21565b825550505050565b5f90565b610ddf610dd3565b610dea818484610dae565b505050565b5b81811015610e0d57610e025f82610dd7565b600181019050610df0565b5050565b601f821115610e5257610e2381610cf4565b610e2c84610d06565b81016020851015610e3b578190505b610e4f610e4785610d06565b830182610def565b50505b505050565b5f82821c905092915050565b5f610e725f1984600802610e57565b1980831691505092915050565b5f610e8a8383610e63565b9150826002028217905092915050565b610ea382610a75565b67ffffffffffffffff811115610ebc57610ebb610872565b5b610ec68254610c74565b610ed1828285610e11565b5f60209050601f831160018114610f02575f8415610ef0578287015190505b610efa8582610e7f565b865550610f61565b601f198416610f1086610cf4565b5f5b82811015610f3757848901518255600182019150602085019450602081019050610f12565b86831015610f545784890151610f50601f891682610e63565b8355505b6001600288020188555050505b505050505050565b7f5a65726f204164647265737300000000000000000000000000000000000000005f82015250565b5f610f9d600c83610a7f565b9150610fa882610f69565b602082019050919050565b5f6020820190508181035f830152610fca81610f91565b9050919050565b7f54616b656e2121000000000000000000000000000000000000000000000000005f82015250565b5f611005600783610a7f565b915061101082610fd1565b602082019050919050565b5f6020820190508181035f83015261103281610ff9565b905091905056fea2646970667358221220ba209dd0947376ad4929582f0f7b135f6abff05c62c8bb338f8ae0b4c5a0005864736f6c63430008150033",
  "immutableReferences": {},
  "source": "\n// SPDX-License-Identifier: MIT\n// compiler version must be greater than or equal to 0.8.17 and less than 0.9.0\npragma solidity ^0.8.17;\n\n\n\ncontract Register {\n\n    address owner;\n\n    constructor(){\n        owner = msg.sender;\n    }\n\n    modifier onlyOwner(){\n        require(msg.sender == owner, \"NOT OWNER!!\");\n        _;\n    }\n\n    mapping(address => string) registered;\n    mapping(string => bool) nameTaken;\n    mapping(address => bool) addressTaken;\n\n    function registerName(string memory name, address nameAddress) external onlyOwner{\n        require(bytes(name).length > 0, \"Name cannot be empty\");\n        require(nameAddress != address(0), \"Zero Address\");\n        require(nameTaken[name] == false && addressTaken[nameAddress] == false, \"Taken!!\");\n        registered[nameAddress] = name;\n\n        nameTaken[name] = true;\n        addressTaken[nameAddress] = true;\n\n    }\n    \n    function updateName(string memory newName, address nameAddress) external onlyOwner {\n        require(bytes(newName).length > 0, \"Name cannot be empty\");\n        require(addressTaken[nameAddress], \"Address have no name, Register!!\" );\n        string memory initialName = registered[nameAddress];\n        nameTaken[initialName] = false;\n        nameTaken[newName] = true;\n        registered[nameAddress] = newName;\n\n    }\n\n    function viewName(address nameAddress) public view onlyOwner returns(string memory){\n        require(addressTaken[nameAddress], \"Address have no name, Register!!\" );\n        return registered[nameAddress];\n    }\n}\n",
  "sourcePath": "/workspace/modifier/contracts/Register.sol",
  "compiler": {
    "name": "solc",
    "version": "0.8.21+commit.d9974bed.Emscripten.clang"
  },
  "schemaVersion": "3.4.16",
  "updatedAt": "2023-11-17T15:40:41.010Z",
  "devdoc": {
    "kind": "dev",
    "methods": {},
    "version": 1
  },
  "userdoc": {
    "kind": "user",
    "methods": {},
    "version": 1
  }
}